{
  "_format": "hh-sol-artifact-1",
  "contractName": "GPURental",
  "sourceName": "contracts/GPURental.sol",
  "abi": [
    {
      "inputs": [
        {
          "internalType": "address",
          "name": "initialOwner",
          "type": "address"
        }
      ],
      "stateMutability": "nonpayable",
      "type": "constructor"
    },
    {
      "inputs": [
        {
          "internalType": "address",
          "name": "owner",
          "type": "address"
        }
      ],
      "name": "OwnableInvalidOwner",
      "type": "error"
    },
    {
      "inputs": [
        {
          "internalType": "address",
          "name": "account",
          "type": "address"
        }
      ],
      "name": "OwnableUnauthorizedAccount",
      "type": "error"
    },
    {
      "inputs": [],
      "name": "ReentrancyGuardReentrantCall",
      "type": "error"
    },
    {
      "anonymous": false,
      "inputs": [
        {
          "indexed": false,
          "internalType": "uint256",
          "name": "newCommissionPercent",
          "type": "uint256"
        }
      ],
      "name": "CommissionAdjusted",
      "type": "event"
    },
    {
      "anonymous": false,
      "inputs": [
        {
          "indexed": true,
          "internalType": "uint256",
          "name": "gpuId",
          "type": "uint256"
        },
        {
          "indexed": false,
          "internalType": "string",
          "name": "specs",
          "type": "string"
        },
        {
          "indexed": false,
          "internalType": "uint256",
          "name": "pricePerHour",
          "type": "uint256"
        }
      ],
      "name": "GPUListed",
      "type": "event"
    },
    {
      "anonymous": false,
      "inputs": [
        {
          "indexed": true,
          "internalType": "uint256",
          "name": "gpuId",
          "type": "uint256"
        },
        {
          "indexed": true,
          "internalType": "address",
          "name": "renter",
          "type": "address"
        },
        {
          "indexed": false,
          "internalType": "uint256",
          "name": "durationHours",
          "type": "uint256"
        },
        {
          "indexed": false,
          "internalType": "uint256",
          "name": "totalCost",
          "type": "uint256"
        }
      ],
      "name": "GPURented",
      "type": "event"
    },
    {
      "anonymous": false,
      "inputs": [
        {
          "indexed": true,
          "internalType": "address",
          "name": "previousOwner",
          "type": "address"
        },
        {
          "indexed": true,
          "internalType": "address",
          "name": "newOwner",
          "type": "address"
        }
      ],
      "name": "OwnershipTransferred",
      "type": "event"
    },
    {
      "anonymous": false,
      "inputs": [
        {
          "indexed": true,
          "internalType": "uint256",
          "name": "gpuId",
          "type": "uint256"
        },
        {
          "indexed": true,
          "internalType": "address",
          "name": "provider",
          "type": "address"
        }
      ],
      "name": "PaymentReleased",
      "type": "event"
    },
    {
      "inputs": [
        {
          "internalType": "uint256",
          "name": "_newCommission",
          "type": "uint256"
        }
      ],
      "name": "adjustPlatformCommission",
      "outputs": [],
      "stateMutability": "nonpayable",
      "type": "function"
    },
    {
      "inputs": [],
      "name": "getTotalGPUs",
      "outputs": [
        {
          "internalType": "uint256",
          "name": "",
          "type": "uint256"
        }
      ],
      "stateMutability": "view",
      "type": "function"
    },
    {
      "inputs": [
        {
          "internalType": "uint256",
          "name": "",
          "type": "uint256"
        }
      ],
      "name": "gpus",
      "outputs": [
        {
          "internalType": "address payable",
          "name": "owner",
          "type": "address"
        },
        {
          "internalType": "string",
          "name": "specs",
          "type": "string"
        },
        {
          "internalType": "uint256",
          "name": "pricePerHour",
          "type": "uint256"
        },
        {
          "internalType": "bool",
          "name": "isAvailable",
          "type": "bool"
        }
      ],
      "stateMutability": "view",
      "type": "function"
    },
    {
      "inputs": [
        {
          "internalType": "string",
          "name": "_specs",
          "type": "string"
        },
        {
          "internalType": "uint256",
          "name": "_pricePerHour",
          "type": "uint256"
        }
      ],
      "name": "listGPU",
      "outputs": [],
      "stateMutability": "nonpayable",
      "type": "function"
    },
    {
      "inputs": [],
      "name": "owner",
      "outputs": [
        {
          "internalType": "address",
          "name": "",
          "type": "address"
        }
      ],
      "stateMutability": "view",
      "type": "function"
    },
    {
      "inputs": [],
      "name": "platformCommissionPercent",
      "outputs": [
        {
          "internalType": "uint256",
          "name": "",
          "type": "uint256"
        }
      ],
      "stateMutability": "view",
      "type": "function"
    },
    {
      "inputs": [
        {
          "internalType": "address",
          "name": "",
          "type": "address"
        }
      ],
      "name": "providerReputation",
      "outputs": [
        {
          "internalType": "uint256",
          "name": "",
          "type": "uint256"
        }
      ],
      "stateMutability": "view",
      "type": "function"
    },
    {
      "inputs": [
        {
          "internalType": "uint256",
          "name": "_gpuId",
          "type": "uint256"
        }
      ],
      "name": "releaseGPU",
      "outputs": [],
      "stateMutability": "nonpayable",
      "type": "function"
    },
    {
      "inputs": [],
      "name": "renounceOwnership",
      "outputs": [],
      "stateMutability": "nonpayable",
      "type": "function"
    },
    {
      "inputs": [
        {
          "internalType": "uint256",
          "name": "_gpuId",
          "type": "uint256"
        },
        {
          "internalType": "uint256",
          "name": "_durationHours",
          "type": "uint256"
        }
      ],
      "name": "rentGPU",
      "outputs": [],
      "stateMutability": "payable",
      "type": "function"
    },
    {
      "inputs": [
        {
          "internalType": "uint256",
          "name": "",
          "type": "uint256"
        }
      ],
      "name": "taskToRentalStartTime",
      "outputs": [
        {
          "internalType": "uint256",
          "name": "",
          "type": "uint256"
        }
      ],
      "stateMutability": "view",
      "type": "function"
    },
    {
      "inputs": [
        {
          "internalType": "address",
          "name": "newOwner",
          "type": "address"
        }
      ],
      "name": "transferOwnership",
      "outputs": [],
      "stateMutability": "nonpayable",
      "type": "function"
    }
  ],
  "bytecode": "0x608060405260026003553480156200001657600080fd5b5060405162001baa38038062001baa83398181016040528101906200003c919062000205565b80806001600081905550600073ffffffffffffffffffffffffffffffffffffffff168173ffffffffffffffffffffffffffffffffffffffff1603620000bb5760006040517f1e4fbdf7000000000000000000000000000000000000000000000000000000008152600401620000b2919062000248565b60405180910390fd5b620000cc81620000d560201b60201c565b50505062000265565b6000600160009054906101000a900473ffffffffffffffffffffffffffffffffffffffff16905081600160006101000a81548173ffffffffffffffffffffffffffffffffffffffff021916908373ffffffffffffffffffffffffffffffffffffffff1602179055508173ffffffffffffffffffffffffffffffffffffffff168173ffffffffffffffffffffffffffffffffffffffff167f8be0079c531659141344cd1fd0a4f28419497f9722a3daafe3b4186f6b6457e060405160405180910390a35050565b600080fd5b600073ffffffffffffffffffffffffffffffffffffffff82169050919050565b6000620001cd82620001a0565b9050919050565b620001df81620001c0565b8114620001eb57600080fd5b50565b600081519050620001ff81620001d4565b92915050565b6000602082840312156200021e576200021d6200019b565b5b60006200022e84828501620001ee565b91505092915050565b6200024281620001c0565b82525050565b60006020820190506200025f600083018462000237565b92915050565b61193580620002756000396000f3fe6080604052600436106100a75760003560e01c806388537d061161006457806388537d06146101ae5780638da5cb5b146101eb578063b10dbfa514610216578063b91a32df14610241578063df1506e81461026a578063f2fde38b14610295576100a7565b80630c86a6bd146100ac5780630e64d5c7146100d5578063193b3401146100f157806329d350531461011a57806339b3667e14610157578063715018a614610197575b600080fd5b3480156100b857600080fd5b506100d360048036038101906100ce9190610d55565b6102be565b005b6100ef60048036038101906100ea9190610d82565b61034a565b005b3480156100fd57600080fd5b5061011860048036038101906101139190610d55565b610532565b005b34801561012657600080fd5b50610141600480360381019061013c9190610d55565b61077c565b60405161014e9190610dd1565b60405180910390f35b34801561016357600080fd5b5061017e60048036038101906101799190610d55565b610794565b60405161018e9493929190610ed8565b60405180910390f35b3480156101a357600080fd5b506101ac610889565b005b3480156101ba57600080fd5b506101d560048036038101906101d09190610f62565b61089d565b6040516101e29190610dd1565b60405180910390f35b3480156101f757600080fd5b506102006108b5565b60405161020d9190610f9e565b60405180910390f35b34801561022257600080fd5b5061022b6108df565b6040516102389190610dd1565b60405180910390f35b34801561024d57600080fd5b50610268600480360381019061026391906110ee565b6108ec565b005b34801561027657600080fd5b5061027f610a29565b60405161028c9190610dd1565b60405180910390f35b3480156102a157600080fd5b506102bc60048036038101906102b79190610f62565b610a2f565b005b6102c6610ab5565b60648110610309576040517f08c379a000000000000000000000000000000000000000000000000000000000815260040161030090611196565b60405180910390fd5b806003819055507f3a17febc9853b4709cfbe78a00e9ebbe3e18c0f11d73f68bfcaf8e58e33cce188160405161033f9190610dd1565b60405180910390a150565b610352610b3c565b600060028381548110610368576103676111b6565b5b906000526020600020906004020190508060030160009054906101000a900460ff166103c9576040517f08c379a00000000000000000000000000000000000000000000000000000000081526004016103c090611231565b60405180910390fd5b8181600201546103d99190611280565b34101561041b576040517f08c379a00000000000000000000000000000000000000000000000000000000081526004016104129061130e565b60405180910390fd5b600082826002015461042d9190611280565b905060006064600354836104419190611280565b61044b919061135d565b90506000818361045b919061138e565b905060008460030160006101000a81548160ff0219169083151502179055504260046000888152602001908152602001600020819055506104c08460000160009054906101000a900473ffffffffffffffffffffffffffffffffffffffff1682610b82565b6104d16104cb6108b5565b83610b82565b3373ffffffffffffffffffffffffffffffffffffffff16867f2d2ad7839a776002c5daddbac598c7a4e3cadfe886473fa82fa1bc6f89ab28f3878660405161051a9291906113c2565b60405180910390a35050505061052e610c33565b5050565b61053a610b3c565b6002818154811061054e5761054d6111b6565b5b906000526020600020906004020160030160009054906101000a900460ff16156105ad576040517f08c379a00000000000000000000000000000000000000000000000000000000081526004016105a490611437565b60405180910390fd5b610e1060046000838152602001908152602001600020546105ce9190611457565b421015610610576040517f08c379a0000000000000000000000000000000000000000000000000000000008152600401610607906114d7565b60405180910390fd5b600160028281548110610626576106256111b6565b5b906000526020600020906004020160030160006101000a81548160ff0219169083151502179055506005600060028381548110610666576106656111b6565b5b906000526020600020906004020160000160009054906101000a900473ffffffffffffffffffffffffffffffffffffffff1673ffffffffffffffffffffffffffffffffffffffff1673ffffffffffffffffffffffffffffffffffffffff16815260200190815260200160002060008154809291906106e3906114f7565b9190505550600281815481106106fc576106fb6111b6565b5b906000526020600020906004020160000160009054906101000a900473ffffffffffffffffffffffffffffffffffffffff1673ffffffffffffffffffffffffffffffffffffffff16817f4156924bd7e340b19303af17bf5323d66fae5dc16f350319092e0839c854368360405160405180910390a3610779610c33565b50565b60046020528060005260406000206000915090505481565b600281815481106107a457600080fd5b90600052602060002090600402016000915090508060000160009054906101000a900473ffffffffffffffffffffffffffffffffffffffff16908060010180546107ed9061156e565b80601f01602080910402602001604051908101604052809291908181526020018280546108199061156e565b80156108665780601f1061083b57610100808354040283529160200191610866565b820191906000526020600020905b81548152906001019060200180831161084957829003601f168201915b5050505050908060020154908060030160009054906101000a900460ff16905084565b610891610ab5565b61089b6000610c3d565b565b60056020528060005260406000206000915090505481565b6000600160009054906101000a900473ffffffffffffffffffffffffffffffffffffffff16905090565b6000600280549050905090565b600260405180608001604052803373ffffffffffffffffffffffffffffffffffffffff16815260200184815260200183815260200160011515815250908060018154018082558091505060019003906000526020600020906004020160009091909190915060008201518160000160006101000a81548173ffffffffffffffffffffffffffffffffffffffff021916908373ffffffffffffffffffffffffffffffffffffffff16021790555060208201518160010190816109ad919061174b565b506040820151816002015560608201518160030160006101000a81548160ff021916908315150217905550505060016002805490506109ec919061138e565b7fd9d96c38e0bc44bed6362c06955ab34933ff300e4ec0ef8caacad218276401a68383604051610a1d92919061181d565b60405180910390a25050565b60035481565b610a37610ab5565b600073ffffffffffffffffffffffffffffffffffffffff168173ffffffffffffffffffffffffffffffffffffffff1603610aa95760006040517f1e4fbdf7000000000000000000000000000000000000000000000000000000008152600401610aa09190610f9e565b60405180910390fd5b610ab281610c3d565b50565b610abd610d03565b73ffffffffffffffffffffffffffffffffffffffff16610adb6108b5565b73ffffffffffffffffffffffffffffffffffffffff1614610b3a57610afe610d03565b6040517f118cdaa7000000000000000000000000000000000000000000000000000000008152600401610b319190610f9e565b60405180910390fd5b565b600260005403610b78576040517f3ee5aeb500000000000000000000000000000000000000000000000000000000815260040160405180910390fd5b6002600081905550565b60008273ffffffffffffffffffffffffffffffffffffffff1682604051610ba89061187e565b60006040518083038185875af1925050503d8060008114610be5576040519150601f19603f3d011682016040523d82523d6000602084013e610bea565b606091505b5050905080610c2e576040517f08c379a0000000000000000000000000000000000000000000000000000000008152600401610c25906118df565b60405180910390fd5b505050565b6001600081905550565b6000600160009054906101000a900473ffffffffffffffffffffffffffffffffffffffff16905081600160006101000a81548173ffffffffffffffffffffffffffffffffffffffff021916908373ffffffffffffffffffffffffffffffffffffffff1602179055508173ffffffffffffffffffffffffffffffffffffffff168173ffffffffffffffffffffffffffffffffffffffff167f8be0079c531659141344cd1fd0a4f28419497f9722a3daafe3b4186f6b6457e060405160405180910390a35050565b600033905090565b6000604051905090565b600080fd5b600080fd5b6000819050919050565b610d3281610d1f565b8114610d3d57600080fd5b50565b600081359050610d4f81610d29565b92915050565b600060208284031215610d6b57610d6a610d15565b5b6000610d7984828501610d40565b91505092915050565b60008060408385031215610d9957610d98610d15565b5b6000610da785828601610d40565b9250506020610db885828601610d40565b9150509250929050565b610dcb81610d1f565b82525050565b6000602082019050610de66000830184610dc2565b92915050565b600073ffffffffffffffffffffffffffffffffffffffff82169050919050565b6000610e1782610dec565b9050919050565b610e2781610e0c565b82525050565b600081519050919050565b600082825260208201905092915050565b60005b83811015610e67578082015181840152602081019050610e4c565b60008484015250505050565b6000601f19601f8301169050919050565b6000610e8f82610e2d565b610e998185610e38565b9350610ea9818560208601610e49565b610eb281610e73565b840191505092915050565b60008115159050919050565b610ed281610ebd565b82525050565b6000608082019050610eed6000830187610e1e565b8181036020830152610eff8186610e84565b9050610f0e6040830185610dc2565b610f1b6060830184610ec9565b95945050505050565b6000610f2f82610dec565b9050919050565b610f3f81610f24565b8114610f4a57600080fd5b50565b600081359050610f5c81610f36565b92915050565b600060208284031215610f7857610f77610d15565b5b6000610f8684828501610f4d565b91505092915050565b610f9881610f24565b82525050565b6000602082019050610fb36000830184610f8f565b92915050565b600080fd5b600080fd5b7f4e487b7100000000000000000000000000000000000000000000000000000000600052604160045260246000fd5b610ffb82610e73565b810181811067ffffffffffffffff8211171561101a57611019610fc3565b5b80604052505050565b600061102d610d0b565b90506110398282610ff2565b919050565b600067ffffffffffffffff82111561105957611058610fc3565b5b61106282610e73565b9050602081019050919050565b82818337600083830152505050565b600061109161108c8461103e565b611023565b9050828152602081018484840111156110ad576110ac610fbe565b5b6110b884828561106f565b509392505050565b600082601f8301126110d5576110d4610fb9565b5b81356110e584826020860161107e565b91505092915050565b6000806040838503121561110557611104610d15565b5b600083013567ffffffffffffffff81111561112357611122610d1a565b5b61112f858286016110c0565b925050602061114085828601610d40565b9150509250929050565b7f436f6d6d697373696f6e20746f6f206869676800000000000000000000000000600082015250565b6000611180601383610e38565b915061118b8261114a565b602082019050919050565b600060208201905081810360008301526111af81611173565b9050919050565b7f4e487b7100000000000000000000000000000000000000000000000000000000600052603260045260246000fd5b7f475055206e6f7420617661696c61626c65000000000000000000000000000000600082015250565b600061121b601183610e38565b9150611226826111e5565b602082019050919050565b6000602082019050818103600083015261124a8161120e565b9050919050565b7f4e487b7100000000000000000000000000000000000000000000000000000000600052601160045260246000fd5b600061128b82610d1f565b915061129683610d1f565b92508282026112a481610d1f565b915082820484148315176112bb576112ba611251565b5b5092915050565b7f496e73756666696369656e74207061796d656e74000000000000000000000000600082015250565b60006112f8601483610e38565b9150611303826112c2565b602082019050919050565b60006020820190508181036000830152611327816112eb565b9050919050565b7f4e487b7100000000000000000000000000000000000000000000000000000000600052601260045260246000fd5b600061136882610d1f565b915061137383610d1f565b9250826113835761138261132e565b5b828204905092915050565b600061139982610d1f565b91506113a483610d1f565b92508282039050818111156113bc576113bb611251565b5b92915050565b60006040820190506113d76000830185610dc2565b6113e46020830184610dc2565b9392505050565b7f475055206e6f742072656e746564000000000000000000000000000000000000600082015250565b6000611421600e83610e38565b915061142c826113eb565b602082019050919050565b6000602082019050818103600083015261145081611414565b9050919050565b600061146282610d1f565b915061146d83610d1f565b925082820190508082111561148557611484611251565b5b92915050565b7f52656e74616c20706572696f64206e6f7420656e646564000000000000000000600082015250565b60006114c1601783610e38565b91506114cc8261148b565b602082019050919050565b600060208201905081810360008301526114f0816114b4565b9050919050565b600061150282610d1f565b91507fffffffffffffffffffffffffffffffffffffffffffffffffffffffffffffffff820361153457611533611251565b5b600182019050919050565b7f4e487b7100000000000000000000000000000000000000000000000000000000600052602260045260246000fd5b6000600282049050600182168061158657607f821691505b6020821081036115995761159861153f565b5b50919050565b60008190508160005260206000209050919050565b60006020601f8301049050919050565b600082821b905092915050565b6000600883026116017fffffffffffffffffffffffffffffffffffffffffffffffffffffffffffffffff826115c4565b61160b86836115c4565b95508019841693508086168417925050509392505050565b6000819050919050565b600061164861164361163e84610d1f565b611623565b610d1f565b9050919050565b6000819050919050565b6116628361162d565b61167661166e8261164f565b8484546115d1565b825550505050565b600090565b61168b61167e565b611696818484611659565b505050565b5b818110156116ba576116af600082611683565b60018101905061169c565b5050565b601f8211156116ff576116d08161159f565b6116d9846115b4565b810160208510156116e8578190505b6116fc6116f4856115b4565b83018261169b565b50505b505050565b600082821c905092915050565b600061172260001984600802611704565b1980831691505092915050565b600061173b8383611711565b9150826002028217905092915050565b61175482610e2d565b67ffffffffffffffff81111561176d5761176c610fc3565b5b611777825461156e565b6117828282856116be565b600060209050601f8311600181146117b557600084156117a3578287015190505b6117ad858261172f565b865550611815565b601f1984166117c38661159f565b60005b828110156117eb578489015182556001820191506020850194506020810190506117c6565b868310156118085784890151611804601f891682611711565b8355505b6001600288020188555050505b505050505050565b600060408201905081810360008301526118378185610e84565b90506118466020830184610dc2565b9392505050565b600081905092915050565b50565b600061186860008361184d565b915061187382611858565b600082019050919050565b60006118898261185b565b9150819050919050565b7f5472616e73666572206661696c65640000000000000000000000000000000000600082015250565b60006118c9600f83610e38565b91506118d482611893565b602082019050919050565b600060208201905081810360008301526118f8816118bc565b905091905056fea26469706673582212200013179676cac22dcfdf59bda86e2e6df439f73ae3acb6711079717e8c0ca4c964736f6c63430008180033",
  "linkReferences": {},
  "deployedLinkReferences": {}
}