{
  "_format": "hh-sol-artifact-1",
  "contractName": "GPURental",
  "sourceName": "contracts/GPURental.sol",
  "abi": [
    {
      "inputs": [],
      "stateMutability": "nonpayable",
      "type": "constructor"
    },
    {
      "anonymous": false,
      "inputs": [
        {
          "indexed": false,
          "internalType": "uint256",
          "name": "taskId",
          "type": "uint256"
        },
        {
          "indexed": false,
          "internalType": "address",
          "name": "provider",
          "type": "address"
        }
      ],
      "name": "GPUDiscovered",
      "type": "event"
    },
    {
      "anonymous": false,
      "inputs": [
        {
          "indexed": false,
          "internalType": "uint256",
          "name": "taskId",
          "type": "uint256"
        },
        {
          "indexed": false,
          "internalType": "uint256",
          "name": "amount",
          "type": "uint256"
        }
      ],
      "name": "PaymentLocked",
      "type": "event"
    },
    {
      "anonymous": false,
      "inputs": [
        {
          "indexed": false,
          "internalType": "uint256",
          "name": "taskId",
          "type": "uint256"
        },
        {
          "indexed": false,
          "internalType": "uint256",
          "name": "amountToProvider",
          "type": "uint256"
        },
        {
          "indexed": false,
          "internalType": "uint256",
          "name": "commissionAmount",
          "type": "uint256"
        }
      ],
      "name": "PaymentReleased",
      "type": "event"
    },
    {
      "anonymous": false,
      "inputs": [
        {
          "indexed": false,
          "internalType": "uint256",
          "name": "taskId",
          "type": "uint256"
        },
        {
          "indexed": false,
          "internalType": "bool",
          "name": "isSuccess",
          "type": "bool"
        }
      ],
      "name": "ResultsVerified",
      "type": "event"
    },
    {
      "inputs": [],
      "name": "commissionPercentage",
      "outputs": [
        {
          "internalType": "uint256",
          "name": "",
          "type": "uint256"
        }
      ],
      "stateMutability": "view",
      "type": "function"
    },
    {
      "inputs": [
        {
          "internalType": "uint256",
          "name": "taskId",
          "type": "uint256"
        }
      ],
      "name": "discoverGPUs",
      "outputs": [],
      "stateMutability": "nonpayable",
      "type": "function"
    },
    {
      "inputs": [
        {
          "internalType": "uint256",
          "name": "taskId",
          "type": "uint256"
        },
        {
          "internalType": "address payable",
          "name": "provider",
          "type": "address"
        }
      ],
      "name": "lockPaymentWithCommission",
      "outputs": [],
      "stateMutability": "payable",
      "type": "function"
    },
    {
      "inputs": [],
      "name": "platformOperator",
      "outputs": [
        {
          "internalType": "address payable",
          "name": "",
          "type": "address"
        }
      ],
      "stateMutability": "view",
      "type": "function"
    },
    {
      "inputs": [
        {
          "internalType": "uint256",
          "name": "",
          "type": "uint256"
        }
      ],
      "name": "taskBalances",
      "outputs": [
        {
          "internalType": "uint256",
          "name": "",
          "type": "uint256"
        }
      ],
      "stateMutability": "view",
      "type": "function"
    },
    {
      "inputs": [
        {
          "internalType": "uint256",
          "name": "taskId",
          "type": "uint256"
        },
        {
          "internalType": "bool",
          "name": "isSuccess",
          "type": "bool"
        }
      ],
      "name": "verifyResults",
      "outputs": [],
      "stateMutability": "nonpayable",
      "type": "function"
    }
  ],
  "bytecode": "0x6080604052600260015534801561001557600080fd5b50336000806101000a81548173ffffffffffffffffffffffffffffffffffffffff021916908373ffffffffffffffffffffffffffffffffffffffff160217905550610d7c806100656000396000f3fe6080604052600436106100555760003560e01c8063085e49b81461005a57806308744e74146100765780634598df2b146100a15780638e6d9f1a146100de578063d575fe6414610107578063f92a141714610132575b600080fd5b610074600480360381019061006f919061078e565b61015b565b005b34801561008257600080fd5b5061008b610300565b60405161009891906107dd565b60405180910390f35b3480156100ad57600080fd5b506100c860048036038101906100c391906107f8565b610324565b6040516100d59190610834565b60405180910390f35b3480156100ea57600080fd5b5061010560048036038101906101009190610887565b61033c565b005b34801561011357600080fd5b5061011c610474565b6040516101299190610834565b60405180910390f35b34801561013e57600080fd5b50610159600480360381019061015491906107f8565b61047a565b005b600060646001543461016d91906108f6565b6101779190610967565b9050600081346101879190610998565b9050806003600086815260200190815260200160002081905550826002600086815260200190815260200160002060006101000a81548173ffffffffffffffffffffffffffffffffffffffff021916908373ffffffffffffffffffffffffffffffffffffffff1602179055507f135319209cf45fe3bbc3748ad37e722ee82f6738da3bc5abfabbfa449cfe112784826040516102249291906109cc565b60405180910390a160008060009054906101000a900473ffffffffffffffffffffffffffffffffffffffff1673ffffffffffffffffffffffffffffffffffffffff168360405161027390610a26565b60006040518083038185875af1925050503d80600081146102b0576040519150601f19603f3d011682016040523d82523d6000602084013e6102b5565b606091505b50509050806102f9576040517f08c379a00000000000000000000000000000000000000000000000000000000081526004016102f090610a98565b60405180910390fd5b5050505050565b60008054906101000a900473ffffffffffffffffffffffffffffffffffffffff1681565b60036020528060005260406000206000915090505481565b60008054906101000a900473ffffffffffffffffffffffffffffffffffffffff1673ffffffffffffffffffffffffffffffffffffffff163373ffffffffffffffffffffffffffffffffffffffff16146103ca576040517f08c379a00000000000000000000000000000000000000000000000000000000081526004016103c190610b2a565b60405180910390fd5b816000600360008381526020019081526020016000205411610421576040517f08c379a000000000000000000000000000000000000000000000000000000000815260040161041890610b96565b60405180910390fd5b7ff71e166b1aa87a9180f9b090a5a7e88e05b74feeecad9c394f4aea29748b7d958383604051610452929190610bc5565b60405180910390a1811561046e5761046983610546565b61046f565b5b505050565b60015481565b60008054906101000a900473ffffffffffffffffffffffffffffffffffffffff1673ffffffffffffffffffffffffffffffffffffffff163373ffffffffffffffffffffffffffffffffffffffff1614610508576040517f08c379a00000000000000000000000000000000000000000000000000000000081526004016104ff90610b2a565b60405180910390fd5b7f9a4ac94ac677974309be7601632092bdcd8f0b6c5c710a467a254ebd7e7913968161012360405161053b929190610c0f565b60405180910390a150565b80600060036000838152602001908152602001600020541161059d576040517f08c379a000000000000000000000000000000000000000000000000000000000815260040161059490610b96565b60405180910390fd5b60006002600084815260200190815260200160002060009054906101000a900473ffffffffffffffffffffffffffffffffffffffff16905060006003600085815260200190815260200160002054905060008273ffffffffffffffffffffffffffffffffffffffff168260405161061390610a26565b60006040518083038185875af1925050503d8060008114610650576040519150601f19603f3d011682016040523d82523d6000602084013e610655565b606091505b5050905080610699576040517f08c379a000000000000000000000000000000000000000000000000000000000815260040161069090610caa565b60405180910390fd5b600060036000878152602001908152602001600020819055507f3c70b1e8034b5738ec77fbfdaa4d28906a0b3160018d67a2dc7b534e53e33fe0858360006040516106e693929190610d0f565b60405180910390a15050505050565b600080fd5b6000819050919050565b61070d816106fa565b811461071857600080fd5b50565b60008135905061072a81610704565b92915050565b600073ffffffffffffffffffffffffffffffffffffffff82169050919050565b600061075b82610730565b9050919050565b61076b81610750565b811461077657600080fd5b50565b60008135905061078881610762565b92915050565b600080604083850312156107a5576107a46106f5565b5b60006107b38582860161071b565b92505060206107c485828601610779565b9150509250929050565b6107d781610750565b82525050565b60006020820190506107f260008301846107ce565b92915050565b60006020828403121561080e5761080d6106f5565b5b600061081c8482850161071b565b91505092915050565b61082e816106fa565b82525050565b60006020820190506108496000830184610825565b92915050565b60008115159050919050565b6108648161084f565b811461086f57600080fd5b50565b6000813590506108818161085b565b92915050565b6000806040838503121561089e5761089d6106f5565b5b60006108ac8582860161071b565b92505060206108bd85828601610872565b9150509250929050565b7f4e487b7100000000000000000000000000000000000000000000000000000000600052601160045260246000fd5b6000610901826106fa565b915061090c836106fa565b925082820261091a816106fa565b91508282048414831517610931576109306108c7565b5b5092915050565b7f4e487b7100000000000000000000000000000000000000000000000000000000600052601260045260246000fd5b6000610972826106fa565b915061097d836106fa565b92508261098d5761098c610938565b5b828204905092915050565b60006109a3826106fa565b91506109ae836106fa565b92508282039050818111156109c6576109c56108c7565b5b92915050565b60006040820190506109e16000830185610825565b6109ee6020830184610825565b9392505050565b600081905092915050565b50565b6000610a106000836109f5565b9150610a1b82610a00565b600082019050919050565b6000610a3182610a03565b9150819050919050565b600082825260208201905092915050565b7f4661696c656420746f2073656e6420636f6d6d697373696f6e00000000000000600082015250565b6000610a82601983610a3b565b9150610a8d82610a4c565b602082019050919050565b60006020820190508181036000830152610ab181610a75565b9050919050565b7f43616c6c6572206973206e6f742074686520706c6174666f726d206f7065726160008201527f746f720000000000000000000000000000000000000000000000000000000000602082015250565b6000610b14602383610a3b565b9150610b1f82610ab8565b604082019050919050565b60006020820190508181036000830152610b4381610b07565b9050919050565b7f5461736b20686173206e6f206c6f636b65642066756e64730000000000000000600082015250565b6000610b80601883610a3b565b9150610b8b82610b4a565b602082019050919050565b60006020820190508181036000830152610baf81610b73565b9050919050565b610bbf8161084f565b82525050565b6000604082019050610bda6000830185610825565b610be76020830184610bb6565b9392505050565b6000610bf982610730565b9050919050565b610c0981610bee565b82525050565b6000604082019050610c246000830185610825565b610c316020830184610c00565b9392505050565b7f4661696c656420746f2073656e64207061796d656e7420746f2070726f76696460008201527f6572000000000000000000000000000000000000000000000000000000000000602082015250565b6000610c94602283610a3b565b9150610c9f82610c38565b604082019050919050565b60006020820190508181036000830152610cc381610c87565b9050919050565b6000819050919050565b6000819050919050565b6000610cf9610cf4610cef84610cca565b610cd4565b6106fa565b9050919050565b610d0981610cde565b82525050565b6000606082019050610d246000830186610825565b610d316020830185610825565b610d3e6040830184610d00565b94935050505056fea264697066735822122035ea6da89bd184f8faae9224dfdd8cfeb5c42b9c11716cc3a25d59175fda2f4964736f6c63430008180033",
  "linkReferences": {},
  "deployedLinkReferences": {}
}